{
  "_format": "hh-sol-artifact-1",
  "contractName": "ERC20Token",
  "sourceName": "contracts/ERC20Token.sol",
  "abi": [
    {
      "inputs": [],
      "stateMutability": "nonpayable",
      "type": "constructor"
    },
    {
      "inputs": [
        {
          "internalType": "uint256",
          "name": "increasedSupply",
          "type": "uint256"
        },
        {
          "internalType": "uint256",
          "name": "cap",
          "type": "uint256"
        }
      ],
      "name": "ERC20ExceededCap",
      "type": "error"
    },
    {
      "inputs": [
        {
          "internalType": "address",
          "name": "spender",
          "type": "address"
        },
        {
          "internalType": "uint256",
          "name": "allowance",
          "type": "uint256"
        },
        {
          "internalType": "uint256",
          "name": "needed",
          "type": "uint256"
        }
      ],
      "name": "ERC20InsufficientAllowance",
      "type": "error"
    },
    {
      "inputs": [
        {
          "internalType": "address",
          "name": "sender",
          "type": "address"
        },
        {
          "internalType": "uint256",
          "name": "balance",
          "type": "uint256"
        },
        {
          "internalType": "uint256",
          "name": "needed",
          "type": "uint256"
        }
      ],
      "name": "ERC20InsufficientBalance",
      "type": "error"
    },
    {
      "inputs": [
        {
          "internalType": "address",
          "name": "approver",
          "type": "address"
        }
      ],
      "name": "ERC20InvalidApprover",
      "type": "error"
    },
    {
      "inputs": [
        {
          "internalType": "uint256",
          "name": "cap",
          "type": "uint256"
        }
      ],
      "name": "ERC20InvalidCap",
      "type": "error"
    },
    {
      "inputs": [
        {
          "internalType": "address",
          "name": "receiver",
          "type": "address"
        }
      ],
      "name": "ERC20InvalidReceiver",
      "type": "error"
    },
    {
      "inputs": [
        {
          "internalType": "address",
          "name": "sender",
          "type": "address"
        }
      ],
      "name": "ERC20InvalidSender",
      "type": "error"
    },
    {
      "inputs": [
        {
          "internalType": "address",
          "name": "spender",
          "type": "address"
        }
      ],
      "name": "ERC20InvalidSpender",
      "type": "error"
    },
    {
      "anonymous": false,
      "inputs": [
        {
          "indexed": true,
          "internalType": "address",
          "name": "owner",
          "type": "address"
        },
        {
          "indexed": true,
          "internalType": "address",
          "name": "spender",
          "type": "address"
        },
        {
          "indexed": false,
          "internalType": "uint256",
          "name": "value",
          "type": "uint256"
        }
      ],
      "name": "Approval",
      "type": "event"
    },
    {
      "anonymous": false,
      "inputs": [
        {
          "indexed": true,
          "internalType": "address",
          "name": "from",
          "type": "address"
        },
        {
          "indexed": true,
          "internalType": "address",
          "name": "to",
          "type": "address"
        },
        {
          "indexed": false,
          "internalType": "uint256",
          "name": "value",
          "type": "uint256"
        }
      ],
      "name": "Transfer",
      "type": "event"
    },
    {
      "stateMutability": "payable",
      "type": "fallback"
    },
    {
      "inputs": [
        {
          "internalType": "address",
          "name": "owner",
          "type": "address"
        },
        {
          "internalType": "address",
          "name": "spender",
          "type": "address"
        }
      ],
      "name": "allowance",
      "outputs": [
        {
          "internalType": "uint256",
          "name": "",
          "type": "uint256"
        }
      ],
      "stateMutability": "view",
      "type": "function"
    },
    {
      "inputs": [
        {
          "internalType": "address",
          "name": "spender",
          "type": "address"
        },
        {
          "internalType": "uint256",
          "name": "amount",
          "type": "uint256"
        }
      ],
      "name": "approve",
      "outputs": [
        {
          "internalType": "bool",
          "name": "",
          "type": "bool"
        }
      ],
      "stateMutability": "nonpayable",
      "type": "function"
    },
    {
      "inputs": [
        {
          "internalType": "address",
          "name": "account",
          "type": "address"
        }
      ],
      "name": "balanceOf",
      "outputs": [
        {
          "internalType": "uint256",
          "name": "",
          "type": "uint256"
        }
      ],
      "stateMutability": "view",
      "type": "function"
    },
    {
      "inputs": [
        {
          "internalType": "uint256",
          "name": "amount",
          "type": "uint256"
        }
      ],
      "name": "burn",
      "outputs": [
        {
          "internalType": "bool",
          "name": "",
          "type": "bool"
        }
      ],
      "stateMutability": "nonpayable",
      "type": "function"
    },
    {
      "inputs": [],
      "name": "buyToken",
      "outputs": [
        {
          "internalType": "bool",
          "name": "",
          "type": "bool"
        }
      ],
      "stateMutability": "payable",
      "type": "function"
    },
    {
      "inputs": [],
      "name": "cap",
      "outputs": [
        {
          "internalType": "uint256",
          "name": "",
          "type": "uint256"
        }
      ],
      "stateMutability": "view",
      "type": "function"
    },
    {
      "inputs": [],
      "name": "decimals",
      "outputs": [
        {
          "internalType": "uint8",
          "name": "",
          "type": "uint8"
        }
      ],
      "stateMutability": "view",
      "type": "function"
    },
    {
      "inputs": [
        {
          "internalType": "uint256",
          "name": "amount",
          "type": "uint256"
        }
      ],
      "name": "mint",
      "outputs": [
        {
          "internalType": "bool",
          "name": "",
          "type": "bool"
        }
      ],
      "stateMutability": "nonpayable",
      "type": "function"
    },
    {
      "inputs": [],
      "name": "name",
      "outputs": [
        {
          "internalType": "string",
          "name": "",
          "type": "string"
        }
      ],
      "stateMutability": "view",
      "type": "function"
    },
    {
      "inputs": [],
      "name": "owner",
      "outputs": [
        {
          "internalType": "address payable",
          "name": "",
          "type": "address"
        }
      ],
      "stateMutability": "view",
      "type": "function"
    },
    {
      "inputs": [],
      "name": "symbol",
      "outputs": [
        {
          "internalType": "string",
          "name": "",
          "type": "string"
        }
      ],
      "stateMutability": "view",
      "type": "function"
    },
    {
      "inputs": [],
      "name": "tokensPerEth",
      "outputs": [
        {
          "internalType": "uint256",
          "name": "",
          "type": "uint256"
        }
      ],
      "stateMutability": "view",
      "type": "function"
    },
    {
      "inputs": [],
      "name": "totalSupply",
      "outputs": [
        {
          "internalType": "uint256",
          "name": "",
          "type": "uint256"
        }
      ],
      "stateMutability": "view",
      "type": "function"
    },
    {
      "inputs": [
        {
          "internalType": "address",
          "name": "recipient",
          "type": "address"
        },
        {
          "internalType": "uint256",
          "name": "amount",
          "type": "uint256"
        }
      ],
      "name": "transfer",
      "outputs": [
        {
          "internalType": "bool",
          "name": "",
          "type": "bool"
        }
      ],
      "stateMutability": "nonpayable",
      "type": "function"
    },
    {
      "inputs": [
        {
          "internalType": "address",
          "name": "from",
          "type": "address"
        },
        {
          "internalType": "address",
          "name": "to",
          "type": "address"
        },
        {
          "internalType": "uint256",
          "name": "amount",
          "type": "uint256"
        }
      ],
      "name": "transferFrom",
      "outputs": [
        {
          "internalType": "bool",
          "name": "",
          "type": "bool"
        }
      ],
      "stateMutability": "nonpayable",
      "type": "function"
    },
    {
      "inputs": [],
      "name": "withdraw",
      "outputs": [],
      "stateMutability": "payable",
      "type": "function"
    },
    {
      "stateMutability": "payable",
      "type": "receive"
    }
  ],
  "bytecode": "0x60c060405260646005553480156200001657600080fd5b50685150ae84a8cdf00000604051806040016040528060098152602001682a32b9ba2a37b5b2b760b91b81525060405180604001604052806002815260200161151560f21b81525081600390816200006f919062000351565b5060046200007e828262000351565b50505080600003620000ab5760405163392e1e2760e01b8152600060048201526024015b60405180910390fd5b6080523360a0819052620000c990683635c9adc5dea00000620000cf565b62000445565b6001600160a01b038216620000fb5760405163ec442f0560e01b815260006004820152602401620000a2565b62000109600083836200010d565b5050565b6200011a8383836200017a565b6001600160a01b038316620001755760006200013560805190565b905060006200014360025490565b905081811115620001725760405163279e7e1560e21b81526004810182905260248101839052604401620000a2565b50505b505050565b6001600160a01b038316620001a95780600260008282546200019d91906200041d565b909155506200021d9050565b6001600160a01b03831660009081526020819052604090205481811015620001fe5760405163391434e360e21b81526001600160a01b03851660048201526024810182905260448101839052606401620000a2565b6001600160a01b03841660009081526020819052604090209082900390555b6001600160a01b0382166200023b576002805482900390556200025a565b6001600160a01b03821660009081526020819052604090208054820190555b816001600160a01b0316836001600160a01b03167fddf252ad1be2c89b69c2b068fc378daa952ba7f163c4a11628f55a4df523b3ef83604051620002a091815260200190565b60405180910390a3505050565b634e487b7160e01b600052604160045260246000fd5b600181811c90821680620002d857607f821691505b602082108103620002f957634e487b7160e01b600052602260045260246000fd5b50919050565b601f8211156200017557600081815260208120601f850160051c81016020861015620003285750805b601f850160051c820191505b81811015620003495782815560010162000334565b505050505050565b81516001600160401b038111156200036d576200036d620002ad565b62000385816200037e8454620002c3565b84620002ff565b602080601f831160018114620003bd5760008415620003a45750858301515b600019600386901b1c1916600185901b17855562000349565b600085815260208120601f198616915b82811015620003ee57888601518255948401946001909101908401620003cd565b50858210156200040d5787850151600019600388901b60f8161c191681555b5050505050600190811b01905550565b808201808211156200043f57634e487b7160e01b600052601160045260246000fd5b92915050565b60805160a051610d9e620004aa60003960008181610267015281816103c90152818161045a01528181610594015281816105d501528181610696015281816106d80152818161073301526107750152600081816101d3015261093d0152610d9e6000f3fe6080604052600436106100f75760003560e01c806370a082311161008a578063a482171911610059578063a4821719146102d6578063a9059cbb146102de578063cbdd69b5146102fe578063dd62ed3e1461031457610106565b806370a082311461021f5780638da5cb5b1461025557806395d89b41146102a1578063a0712d68146102b657610106565b8063313ce567116100c6578063313ce567146101a8578063355274ea146101c45780633ccfd60b146101f757806342966c68146101ff57610106565b806306fdde031461010e578063095ea7b31461013957806318160ddd1461016957806323b872dd1461018857610106565b366101065761010461035a565b005b61010461035a565b34801561011a57600080fd5b50610123610489565b6040516101309190610b8e565b60405180910390f35b34801561014557600080fd5b50610159610154366004610bf3565b61051b565b6040519015158152602001610130565b34801561017557600080fd5b506002545b604051908152602001610130565b34801561019457600080fd5b506101596101a3366004610c1d565b610543565b3480156101b457600080fd5b5060405160128152602001610130565b3480156101d057600080fd5b507f000000000000000000000000000000000000000000000000000000000000000061017a565b610104610589565b34801561020b57600080fd5b5061015961021a366004610c59565b610689565b34801561022b57600080fd5b5061017a61023a366004610c72565b6001600160a01b031660009081526020819052604090205490565b34801561026157600080fd5b506102897f000000000000000000000000000000000000000000000000000000000000000081565b6040516001600160a01b039091168152602001610130565b3480156102ad57600080fd5b50610123610717565b3480156102c257600080fd5b506101596102d1366004610c59565b610726565b61015961035a565b3480156102ea57600080fd5b506101596102f9366004610bf3565b6107ab565b34801561030a57600080fd5b5061017a60055481565b34801561032057600080fd5b5061017a61032f366004610c94565b6001600160a01b03918216600090815260016020908152604080832093909416825291909152205490565b60008034116103b05760405162461bcd60e51b815260206004820152601c60248201527f4e6f7420656e6f7567682045544820746f2062757920746f6b656e730000000060448201526064015b60405180910390fd5b6000600554346103c09190610cdd565b905060006104037f00000000000000000000000000000000000000000000000000000000000000006001600160a01b031660009081526020819052604090205490565b9050818110156104555760405162461bcd60e51b815260206004820152601e60248201527f436f6e747261637420686173206e6f7420656e6f75676820746f6b656e73000060448201526064016103a7565b6104807f000000000000000000000000000000000000000000000000000000000000000033846107c4565b60019250505090565b60606003805461049890610cf4565b80601f01602080910402602001604051908101604052809291908181526020018280546104c490610cf4565b80156105115780601f106104e657610100808354040283529160200191610511565b820191906000526020600020905b8154815290600101906020018083116104f457829003601f168201915b5050505050905090565b6000610539338461053485670de0b6b3a7640000610cdd565b610828565b5060015b92915050565b600033610562858261055d86670de0b6b3a7640000610cdd565b610835565b61057e858561057986670de0b6b3a7640000610cdd565b6107c4565b506001949350505050565b336001600160a01b037f000000000000000000000000000000000000000000000000000000000000000016146105d15760405162461bcd60e51b81526004016103a790610d2e565b60007f00000000000000000000000000000000000000000000000000000000000000006001600160a01b03164760405160006040518083038185875af1925050503d806000811461063e576040519150601f19603f3d011682016040523d82523d6000602084013e610643565b606091505b50509050806106865760405162461bcd60e51b815260206004820152600f60248201526e15da5d1a191c985dc819985a5b1959608a1b60448201526064016103a7565b50565b6000336001600160a01b037f000000000000000000000000000000000000000000000000000000000000000016146106d35760405162461bcd60e51b81526004016103a790610d2e565b61070e7f000000000000000000000000000000000000000000000000000000000000000061070984670de0b6b3a7640000610cdd565b6108b3565b5060015b919050565b60606004805461049890610cf4565b6000336001600160a01b037f000000000000000000000000000000000000000000000000000000000000000016146107705760405162461bcd60e51b81526004016103a790610d2e565b61070e7f00000000000000000000000000000000000000000000000000000000000000006107a684670de0b6b3a7640000610cdd565b6108ed565b6000610539338461057985670de0b6b3a7640000610cdd565b6001600160a01b0383166107ee57604051634b637e8f60e11b8152600060048201526024016103a7565b6001600160a01b0382166108185760405163ec442f0560e01b8152600060048201526024016103a7565b61082383838361091f565b505050565b610823838383600161098f565b6001600160a01b0383811660009081526001602090815260408083209386168352929052205460001981146108ad578181101561089e57604051637dc7a0d960e11b81526001600160a01b038416600482015260248101829052604481018390526064016103a7565b6108ad8484848403600061098f565b50505050565b6001600160a01b0382166108dd57604051634b637e8f60e11b8152600060048201526024016103a7565b6108e98260008361091f565b5050565b6001600160a01b0382166109175760405163ec442f0560e01b8152600060048201526024016103a7565b6108e9600083835b61092a838383610a64565b6001600160a01b038316610823576002547f000000000000000000000000000000000000000000000000000000000000000090818111156109885760405163279e7e1560e21b815260048101829052602481018390526044016103a7565b5050505050565b6001600160a01b0384166109b95760405163e602df0560e01b8152600060048201526024016103a7565b6001600160a01b0383166109e357604051634a1406b160e11b8152600060048201526024016103a7565b6001600160a01b03808516600090815260016020908152604080832093871683529290522082905580156108ad57826001600160a01b0316846001600160a01b03167f8c5be1e5ebec7d5bd14f71427d1e84f3dd0314c0f7b2291e5b200ac8c7c3b92584604051610a5691815260200190565b60405180910390a350505050565b6001600160a01b038316610a8f578060026000828254610a849190610d55565b90915550610b019050565b6001600160a01b03831660009081526020819052604090205481811015610ae25760405163391434e360e21b81526001600160a01b038516600482015260248101829052604481018390526064016103a7565b6001600160a01b03841660009081526020819052604090209082900390555b6001600160a01b038216610b1d57600280548290039055610b3c565b6001600160a01b03821660009081526020819052604090208054820190555b816001600160a01b0316836001600160a01b03167fddf252ad1be2c89b69c2b068fc378daa952ba7f163c4a11628f55a4df523b3ef83604051610b8191815260200190565b60405180910390a3505050565b600060208083528351808285015260005b81811015610bbb57858101830151858201604001528201610b9f565b506000604082860101526040601f19601f8301168501019250505092915050565b80356001600160a01b038116811461071257600080fd5b60008060408385031215610c0657600080fd5b610c0f83610bdc565b946020939093013593505050565b600080600060608486031215610c3257600080fd5b610c3b84610bdc565b9250610c4960208501610bdc565b9150604084013590509250925092565b600060208284031215610c6b57600080fd5b5035919050565b600060208284031215610c8457600080fd5b610c8d82610bdc565b9392505050565b60008060408385031215610ca757600080fd5b610cb083610bdc565b9150610cbe60208401610bdc565b90509250929050565b634e487b7160e01b600052601160045260246000fd5b808202811582820484141761053d5761053d610cc7565b600181811c90821680610d0857607f821691505b602082108103610d2857634e487b7160e01b600052602260045260246000fd5b50919050565b6020808252600d908201526c24b73b30b634b21027bbb732b960991b604082015260600190565b8082018082111561053d5761053d610cc756fea2646970667358221220fa8010d57d5ea433dacb178df186028ec4eee1d61aa25da0a24311f66b93298a64736f6c63430008140033",
  "linkReferences": {},
  "deployedLinkReferences": {}
}