{
  "_format": "hh-sol-artifact-1",
  "contractName": "Marketplace",
  "sourceName": "contracts/Marketplace.sol",
  "abi": [
    {
      "inputs": [
        {
          "internalType": "address",
          "name": "_nftAddress",
          "type": "address"
        },
        {
          "internalType": "address",
          "name": "_erc20Address",
          "type": "address"
        }
      ],
      "stateMutability": "nonpayable",
      "type": "constructor"
    },
    {
      "anonymous": false,
      "inputs": [
        {
          "indexed": true,
          "internalType": "address",
          "name": "ownerOfNFT",
          "type": "address"
        },
        {
          "indexed": true,
          "internalType": "uint256",
          "name": "tokenId",
          "type": "uint256"
        },
        {
          "indexed": false,
          "internalType": "bool",
          "name": "isOnSale",
          "type": "bool"
        }
      ],
      "name": "NFTOnSaleStatus",
      "type": "event"
    },
    {
      "anonymous": false,
      "inputs": [
        {
          "indexed": true,
          "internalType": "address",
          "name": "buyer",
          "type": "address"
        },
        {
          "indexed": true,
          "internalType": "address",
          "name": "seller",
          "type": "address"
        },
        {
          "indexed": false,
          "internalType": "uint256",
          "name": "tokenId",
          "type": "uint256"
        },
        {
          "indexed": false,
          "internalType": "uint256",
          "name": "erc20TokensAmount",
          "type": "uint256"
        }
      ],
      "name": "NftTransaktion",
      "type": "event"
    },
    {
      "inputs": [
        {
          "internalType": "uint256",
          "name": "_tokenId",
          "type": "uint256"
        }
      ],
      "name": "buyNFT",
      "outputs": [
        {
          "internalType": "bool",
          "name": "",
          "type": "bool"
        }
      ],
      "stateMutability": "nonpayable",
      "type": "function"
    },
    {
      "inputs": [],
      "name": "erc20",
      "outputs": [
        {
          "internalType": "contract ERC20Token",
          "name": "",
          "type": "address"
        }
      ],
      "stateMutability": "view",
      "type": "function"
    },
    {
      "inputs": [],
      "name": "nft",
      "outputs": [
        {
          "internalType": "contract ERC721Token",
          "name": "",
          "type": "address"
        }
      ],
      "stateMutability": "view",
      "type": "function"
    },
    {
      "inputs": [
        {
          "internalType": "uint256",
          "name": "_tokenId",
          "type": "uint256"
        }
      ],
      "name": "putNFTOnSale",
      "outputs": [
        {
          "internalType": "bool",
          "name": "",
          "type": "bool"
        }
      ],
      "stateMutability": "nonpayable",
      "type": "function"
    },
    {
      "inputs": [
        {
          "internalType": "uint256",
          "name": "_tokenId",
          "type": "uint256"
        }
      ],
      "name": "removeNFTFromSale",
      "outputs": [
        {
          "internalType": "bool",
          "name": "",
          "type": "bool"
        }
      ],
      "stateMutability": "nonpayable",
      "type": "function"
    },
    {
      "inputs": [
        {
          "internalType": "uint256",
          "name": "",
          "type": "uint256"
        }
      ],
      "name": "tokenIdForSale",
      "outputs": [
        {
          "internalType": "bool",
          "name": "",
          "type": "bool"
        }
      ],
      "stateMutability": "view",
      "type": "function"
    }
  ],
  "bytecode": "0x608060405234801561001057600080fd5b506040516109de3803806109de83398101604081905261002f9161007c565b600080546001600160a01b039384166001600160a01b031991821617909155600180549290931691161790556100af565b80516001600160a01b038116811461007757600080fd5b919050565b6000806040838503121561008f57600080fd5b61009883610060565b91506100a660208401610060565b90509250929050565b610920806100be6000396000f3fe608060405234801561001057600080fd5b50600436106100625760003560e01c806347ccca021461006757806351ed8288146100975780635b76b234146100ba578063785e9e86146100dd578063a02e5107146100f0578063b541eb8914610103575b600080fd5b60005461007a906001600160a01b031681565b6040516001600160a01b0390911681526020015b60405180910390f35b6100aa6100a536600461083b565b610116565b604051901515815260200161008e565b6100aa6100c836600461083b565b60026020526000908152604090205460ff1681565b60015461007a906001600160a01b031681565b6100aa6100fe36600461083b565b610604565b6100aa61011136600461083b565b610722565b600080546040516331a9108f60e11b81526004810184905282916001600160a01b031690636352211e90602401602060405180830381865afa158015610160573d6000803e3d6000fd5b505050506040513d601f19601f820116820180604052508101906101849190610854565b90506001600160a01b0381166101d65760405162461bcd60e51b815260206004820152601260248201527113919508191bd95cc81b9bdd08195e1a5cdd60721b60448201526064015b60405180910390fd5b60008381526002602052604090205460ff166102295760405162461bcd60e51b81526020600482015260126024820152714e4654206973206e6f74206f6e2073616c6560701b60448201526064016101cd565b60005460405163020604bf60e21b81526004810185905230916001600160a01b03169063081812fc90602401602060405180830381865afa158015610272573d6000803e3d6000fd5b505050506040513d601f19601f820116820180604052508101906102969190610854565b6001600160a01b0316146102ec5760405162461bcd60e51b815260206004820152601960248201527f4e4654207472616e73666572206e6f7420617070726f7665640000000000000060448201526064016101cd565b6001546040805163cbdd69b560e01b815290516000926001600160a01b03169163cbdd69b59160048083019260209291908290030181865afa158015610336573d6000803e3d6000fd5b505050506040513d601f19601f8201168201806040525081019061035a9190610884565b60008054906101000a90046001600160a01b03166001600160a01b03166313faede66040518163ffffffff1660e01b8152600401602060405180830381865afa1580156103ab573d6000803e3d6000fd5b505050506040513d601f19601f820116820180604052508101906103cf9190610884565b6103d9919061089d565b6001546040516370a0823160e01b815233600482015291925082916001600160a01b03909116906370a0823190602401602060405180830381865afa158015610426573d6000803e3d6000fd5b505050506040513d601f19601f8201168201806040525081019061044a9190610884565b10156104b35760405162461bcd60e51b815260206004820152603260248201527f4e6f7420656e6f75676820657263323020746f6b656e73206f6e20796f75722060448201527118985b185b98d9481d1bc8189d5e4813919560721b60648201526084016101cd565b6001546040516323b872dd60e01b81523360048201526001600160a01b03848116602483015260448201849052909116906323b872dd906064016020604051808303816000875af115801561050c573d6000803e3d6000fd5b505050506040513d601f19601f8201168201806040525081019061053091906108c8565b506000546040516323b872dd60e01b81526001600160a01b03848116600483015233602483015260448201879052909116906323b872dd90606401600060405180830381600087803b15801561058557600080fd5b505af1158015610599573d6000803e3d6000fd5b505050600085815260026020908152604091829020805460ff1916905581518781529081018490526001600160a01b038516925033917f08297ba862c11b2501bd9e1149746c086eb41dd766450f75a981f60012657793910160405180910390a35060019392505050565b600080546040516331a9108f60e11b815260048101849052839133916001600160a01b0390911690636352211e90602401602060405180830381865afa158015610652573d6000803e3d6000fd5b505050506040513d601f19601f820116820180604052508101906106769190610854565b6001600160a01b0316146106cc5760405162461bcd60e51b815260206004820152601d60248201527f596f7520617265206e6f74206f776e6572206f662074686973204e465400000060448201526064016101cd565b6000838152600260209081526040808320805460ff1916905551918252849133917f2e6ae0aa700c8d236f485200ff576a56932c0e4f94f8b180a1c761a66838d2b991015b60405180910390a350600192915050565b600080546040516331a9108f60e11b815260048101849052839133916001600160a01b0390911690636352211e90602401602060405180830381865afa158015610770573d6000803e3d6000fd5b505050506040513d601f19601f820116820180604052508101906107949190610854565b6001600160a01b0316146107ea5760405162461bcd60e51b815260206004820152601d60248201527f596f7520617265206e6f74206f776e6572206f662074686973204e465400000060448201526064016101cd565b600083815260026020908152604091829020805460ff191660019081179091559151918252849133917f2e6ae0aa700c8d236f485200ff576a56932c0e4f94f8b180a1c761a66838d2b99101610711565b60006020828403121561084d57600080fd5b5035919050565b60006020828403121561086657600080fd5b81516001600160a01b038116811461087d57600080fd5b9392505050565b60006020828403121561089657600080fd5b5051919050565b80820281158282048414176108c257634e487b7160e01b600052601160045260246000fd5b92915050565b6000602082840312156108da57600080fd5b8151801515811461087d57600080fdfea2646970667358221220e1a77ab5423cd4e760bdfde376ff7ff03cfdae34d72899cf2521a20172e0002564736f6c63430008140033",
  "linkReferences": {},
  "deployedLinkReferences": {}
}