{
  "_format": "hh-sol-artifact-1",
  "contractName": "ERC721Token",
  "sourceName": "contracts/ERC721Token.sol",
  "abi": [
    {
      "inputs": [
        {
          "internalType": "string",
          "name": "_name",
          "type": "string"
        },
        {
          "internalType": "string",
          "name": "_symbol",
          "type": "string"
        },
        {
          "internalType": "string",
          "name": "_initBaseURI",
          "type": "string"
        }
      ],
      "stateMutability": "nonpayable",
      "type": "constructor"
    },
    {
      "inputs": [],
      "name": "ERC721EnumerableForbiddenBatchMint",
      "type": "error"
    },
    {
      "inputs": [
        {
          "internalType": "address",
          "name": "sender",
          "type": "address"
        },
        {
          "internalType": "uint256",
          "name": "tokenId",
          "type": "uint256"
        },
        {
          "internalType": "address",
          "name": "owner",
          "type": "address"
        }
      ],
      "name": "ERC721IncorrectOwner",
      "type": "error"
    },
    {
      "inputs": [
        {
          "internalType": "address",
          "name": "operator",
          "type": "address"
        },
        {
          "internalType": "uint256",
          "name": "tokenId",
          "type": "uint256"
        }
      ],
      "name": "ERC721InsufficientApproval",
      "type": "error"
    },
    {
      "inputs": [
        {
          "internalType": "address",
          "name": "approver",
          "type": "address"
        }
      ],
      "name": "ERC721InvalidApprover",
      "type": "error"
    },
    {
      "inputs": [
        {
          "internalType": "address",
          "name": "operator",
          "type": "address"
        }
      ],
      "name": "ERC721InvalidOperator",
      "type": "error"
    },
    {
      "inputs": [
        {
          "internalType": "address",
          "name": "owner",
          "type": "address"
        }
      ],
      "name": "ERC721InvalidOwner",
      "type": "error"
    },
    {
      "inputs": [
        {
          "internalType": "address",
          "name": "receiver",
          "type": "address"
        }
      ],
      "name": "ERC721InvalidReceiver",
      "type": "error"
    },
    {
      "inputs": [
        {
          "internalType": "address",
          "name": "sender",
          "type": "address"
        }
      ],
      "name": "ERC721InvalidSender",
      "type": "error"
    },
    {
      "inputs": [
        {
          "internalType": "uint256",
          "name": "tokenId",
          "type": "uint256"
        }
      ],
      "name": "ERC721NonexistentToken",
      "type": "error"
    },
    {
      "inputs": [
        {
          "internalType": "address",
          "name": "owner",
          "type": "address"
        },
        {
          "internalType": "uint256",
          "name": "index",
          "type": "uint256"
        }
      ],
      "name": "ERC721OutOfBoundsIndex",
      "type": "error"
    },
    {
      "inputs": [
        {
          "internalType": "address",
          "name": "owner",
          "type": "address"
        }
      ],
      "name": "OwnableInvalidOwner",
      "type": "error"
    },
    {
      "inputs": [
        {
          "internalType": "address",
          "name": "account",
          "type": "address"
        }
      ],
      "name": "OwnableUnauthorizedAccount",
      "type": "error"
    },
    {
      "anonymous": false,
      "inputs": [
        {
          "indexed": true,
          "internalType": "address",
          "name": "owner",
          "type": "address"
        },
        {
          "indexed": true,
          "internalType": "address",
          "name": "approved",
          "type": "address"
        },
        {
          "indexed": true,
          "internalType": "uint256",
          "name": "tokenId",
          "type": "uint256"
        }
      ],
      "name": "Approval",
      "type": "event"
    },
    {
      "anonymous": false,
      "inputs": [
        {
          "indexed": true,
          "internalType": "address",
          "name": "owner",
          "type": "address"
        },
        {
          "indexed": true,
          "internalType": "address",
          "name": "operator",
          "type": "address"
        },
        {
          "indexed": false,
          "internalType": "bool",
          "name": "approved",
          "type": "bool"
        }
      ],
      "name": "ApprovalForAll",
      "type": "event"
    },
    {
      "anonymous": false,
      "inputs": [
        {
          "indexed": true,
          "internalType": "address",
          "name": "previousOwner",
          "type": "address"
        },
        {
          "indexed": true,
          "internalType": "address",
          "name": "newOwner",
          "type": "address"
        }
      ],
      "name": "OwnershipTransferred",
      "type": "event"
    },
    {
      "anonymous": false,
      "inputs": [
        {
          "indexed": true,
          "internalType": "address",
          "name": "from",
          "type": "address"
        },
        {
          "indexed": true,
          "internalType": "address",
          "name": "to",
          "type": "address"
        },
        {
          "indexed": true,
          "internalType": "uint256",
          "name": "tokenId",
          "type": "uint256"
        }
      ],
      "name": "Transfer",
      "type": "event"
    },
    {
      "inputs": [
        {
          "internalType": "address",
          "name": "to",
          "type": "address"
        },
        {
          "internalType": "uint256",
          "name": "tokenId",
          "type": "uint256"
        }
      ],
      "name": "approve",
      "outputs": [],
      "stateMutability": "nonpayable",
      "type": "function"
    },
    {
      "inputs": [
        {
          "internalType": "address",
          "name": "owner",
          "type": "address"
        }
      ],
      "name": "balanceOf",
      "outputs": [
        {
          "internalType": "uint256",
          "name": "",
          "type": "uint256"
        }
      ],
      "stateMutability": "view",
      "type": "function"
    },
    {
      "inputs": [],
      "name": "baseExtension",
      "outputs": [
        {
          "internalType": "string",
          "name": "",
          "type": "string"
        }
      ],
      "stateMutability": "view",
      "type": "function"
    },
    {
      "inputs": [],
      "name": "cost",
      "outputs": [
        {
          "internalType": "uint256",
          "name": "",
          "type": "uint256"
        }
      ],
      "stateMutability": "view",
      "type": "function"
    },
    {
      "inputs": [
        {
          "internalType": "uint256",
          "name": "tokenId",
          "type": "uint256"
        }
      ],
      "name": "getApproved",
      "outputs": [
        {
          "internalType": "address",
          "name": "",
          "type": "address"
        }
      ],
      "stateMutability": "view",
      "type": "function"
    },
    {
      "inputs": [
        {
          "internalType": "address",
          "name": "owner",
          "type": "address"
        },
        {
          "internalType": "address",
          "name": "operator",
          "type": "address"
        }
      ],
      "name": "isApprovedForAll",
      "outputs": [
        {
          "internalType": "bool",
          "name": "",
          "type": "bool"
        }
      ],
      "stateMutability": "view",
      "type": "function"
    },
    {
      "inputs": [],
      "name": "maxMintAmount",
      "outputs": [
        {
          "internalType": "uint256",
          "name": "",
          "type": "uint256"
        }
      ],
      "stateMutability": "view",
      "type": "function"
    },
    {
      "inputs": [],
      "name": "maxSupply",
      "outputs": [
        {
          "internalType": "uint256",
          "name": "",
          "type": "uint256"
        }
      ],
      "stateMutability": "view",
      "type": "function"
    },
    {
      "inputs": [
        {
          "internalType": "uint256",
          "name": "_mintAmount",
          "type": "uint256"
        }
      ],
      "name": "mint",
      "outputs": [],
      "stateMutability": "payable",
      "type": "function"
    },
    {
      "inputs": [],
      "name": "name",
      "outputs": [
        {
          "internalType": "string",
          "name": "",
          "type": "string"
        }
      ],
      "stateMutability": "view",
      "type": "function"
    },
    {
      "inputs": [],
      "name": "owner",
      "outputs": [
        {
          "internalType": "address",
          "name": "",
          "type": "address"
        }
      ],
      "stateMutability": "view",
      "type": "function"
    },
    {
      "inputs": [
        {
          "internalType": "uint256",
          "name": "tokenId",
          "type": "uint256"
        }
      ],
      "name": "ownerOf",
      "outputs": [
        {
          "internalType": "address",
          "name": "",
          "type": "address"
        }
      ],
      "stateMutability": "view",
      "type": "function"
    },
    {
      "inputs": [
        {
          "internalType": "bool",
          "name": "_state",
          "type": "bool"
        }
      ],
      "name": "pause",
      "outputs": [],
      "stateMutability": "nonpayable",
      "type": "function"
    },
    {
      "inputs": [],
      "name": "paused",
      "outputs": [
        {
          "internalType": "bool",
          "name": "",
          "type": "bool"
        }
      ],
      "stateMutability": "view",
      "type": "function"
    },
    {
      "inputs": [],
      "name": "renounceOwnership",
      "outputs": [],
      "stateMutability": "nonpayable",
      "type": "function"
    },
    {
      "inputs": [
        {
          "internalType": "address",
          "name": "from",
          "type": "address"
        },
        {
          "internalType": "address",
          "name": "to",
          "type": "address"
        },
        {
          "internalType": "uint256",
          "name": "tokenId",
          "type": "uint256"
        }
      ],
      "name": "safeTransferFrom",
      "outputs": [],
      "stateMutability": "nonpayable",
      "type": "function"
    },
    {
      "inputs": [
        {
          "internalType": "address",
          "name": "from",
          "type": "address"
        },
        {
          "internalType": "address",
          "name": "to",
          "type": "address"
        },
        {
          "internalType": "uint256",
          "name": "tokenId",
          "type": "uint256"
        },
        {
          "internalType": "bytes",
          "name": "data",
          "type": "bytes"
        }
      ],
      "name": "safeTransferFrom",
      "outputs": [],
      "stateMutability": "nonpayable",
      "type": "function"
    },
    {
      "inputs": [
        {
          "internalType": "address",
          "name": "operator",
          "type": "address"
        },
        {
          "internalType": "bool",
          "name": "approved",
          "type": "bool"
        }
      ],
      "name": "setApprovalForAll",
      "outputs": [],
      "stateMutability": "nonpayable",
      "type": "function"
    },
    {
      "inputs": [
        {
          "internalType": "string",
          "name": "_newBaseExtension",
          "type": "string"
        }
      ],
      "name": "setBaseExtension",
      "outputs": [],
      "stateMutability": "nonpayable",
      "type": "function"
    },
    {
      "inputs": [
        {
          "internalType": "string",
          "name": "_newBaseURI",
          "type": "string"
        }
      ],
      "name": "setBaseURI",
      "outputs": [],
      "stateMutability": "nonpayable",
      "type": "function"
    },
    {
      "inputs": [
        {
          "internalType": "uint256",
          "name": "_newCost",
          "type": "uint256"
        }
      ],
      "name": "setCost",
      "outputs": [],
      "stateMutability": "nonpayable",
      "type": "function"
    },
    {
      "inputs": [
        {
          "internalType": "bytes4",
          "name": "interfaceId",
          "type": "bytes4"
        }
      ],
      "name": "supportsInterface",
      "outputs": [
        {
          "internalType": "bool",
          "name": "",
          "type": "bool"
        }
      ],
      "stateMutability": "view",
      "type": "function"
    },
    {
      "inputs": [],
      "name": "symbol",
      "outputs": [
        {
          "internalType": "string",
          "name": "",
          "type": "string"
        }
      ],
      "stateMutability": "view",
      "type": "function"
    },
    {
      "inputs": [
        {
          "internalType": "uint256",
          "name": "index",
          "type": "uint256"
        }
      ],
      "name": "tokenByIndex",
      "outputs": [
        {
          "internalType": "uint256",
          "name": "",
          "type": "uint256"
        }
      ],
      "stateMutability": "view",
      "type": "function"
    },
    {
      "inputs": [
        {
          "internalType": "address",
          "name": "owner",
          "type": "address"
        },
        {
          "internalType": "uint256",
          "name": "index",
          "type": "uint256"
        }
      ],
      "name": "tokenOfOwnerByIndex",
      "outputs": [
        {
          "internalType": "uint256",
          "name": "",
          "type": "uint256"
        }
      ],
      "stateMutability": "view",
      "type": "function"
    },
    {
      "inputs": [
        {
          "internalType": "uint256",
          "name": "tokenId",
          "type": "uint256"
        }
      ],
      "name": "tokenURI",
      "outputs": [
        {
          "internalType": "string",
          "name": "",
          "type": "string"
        }
      ],
      "stateMutability": "view",
      "type": "function"
    },
    {
      "inputs": [],
      "name": "totalSupply",
      "outputs": [
        {
          "internalType": "uint256",
          "name": "",
          "type": "uint256"
        }
      ],
      "stateMutability": "view",
      "type": "function"
    },
    {
      "inputs": [
        {
          "internalType": "address",
          "name": "from",
          "type": "address"
        },
        {
          "internalType": "address",
          "name": "to",
          "type": "address"
        },
        {
          "internalType": "uint256",
          "name": "tokenId",
          "type": "uint256"
        }
      ],
      "name": "transferFrom",
      "outputs": [],
      "stateMutability": "nonpayable",
      "type": "function"
    },
    {
      "inputs": [
        {
          "internalType": "address",
          "name": "newOwner",
          "type": "address"
        }
      ],
      "name": "transferOwnership",
      "outputs": [],
      "stateMutability": "nonpayable",
      "type": "function"
    },
    {
      "inputs": [
        {
          "internalType": "address",
          "name": "_owner",
          "type": "address"
        }
      ],
      "name": "walletOfOwner",
      "outputs": [
        {
          "internalType": "uint256[]",
          "name": "",
          "type": "uint256[]"
        }
      ],
      "stateMutability": "view",
      "type": "function"
    },
    {
      "inputs": [],
      "name": "withdraw",
      "outputs": [],
      "stateMutability": "payable",
      "type": "function"
    }
  ],
  "bytecode": "0x60c06040526005608090815264173539b7b760d91b60a052600c906200002690826200022d565b50662386f26fc10000600d556063600e556005600f556010805460ff191690553480156200005357600080fd5b506040516200220d3803806200220d8339810160408190526200007691620003a8565b33838360006200008783826200022d565b5060016200009682826200022d565b5050506001600160a01b038116620000c957604051631e4fbdf760e01b8152600060048201526024015b60405180910390fd5b620000d481620000e9565b50620000e0816200013b565b50505062000439565b600a80546001600160a01b038381166001600160a01b0319831681179093556040519116919082907f8be0079c531659141344cd1fd0a4f28419497f9722a3daafe3b4186f6b6457e090600090a35050565b6200014562000157565b600b6200015382826200022d565b5050565b600a546001600160a01b03163314620001865760405163118cdaa760e01b8152336004820152602401620000c0565b565b634e487b7160e01b600052604160045260246000fd5b600181811c90821680620001b357607f821691505b602082108103620001d457634e487b7160e01b600052602260045260246000fd5b50919050565b601f8211156200022857600081815260208120601f850160051c81016020861015620002035750805b601f850160051c820191505b8181101562000224578281556001016200020f565b5050505b505050565b81516001600160401b0381111562000249576200024962000188565b62000261816200025a84546200019e565b84620001da565b602080601f831160018114620002995760008415620002805750858301515b600019600386901b1c1916600185901b17855562000224565b600085815260208120601f198616915b82811015620002ca57888601518255948401946001909101908401620002a9565b5085821015620002e95787850151600019600388901b60f8161c191681555b5050505050600190811b01905550565b600082601f8301126200030b57600080fd5b81516001600160401b038082111562000328576200032862000188565b604051601f8301601f19908116603f0116810190828211818310171562000353576200035362000188565b816040528381526020925086838588010111156200037057600080fd5b600091505b8382101562000394578582018301518183018401529082019062000375565b600093810190920192909252949350505050565b600080600060608486031215620003be57600080fd5b83516001600160401b0380821115620003d657600080fd5b620003e487838801620002f9565b94506020860151915080821115620003fb57600080fd5b6200040987838801620002f9565b935060408601519150808211156200042057600080fd5b506200042f86828701620002f9565b9150509250925092565b611dc480620004496000396000f3fe6080604052600436106101d85760003560e01c806355f804b311610102578063a22cb46511610095578063d5abeb0111610064578063d5abeb011461051c578063da3ef23f14610532578063e985e9c514610552578063f2fde38b1461057257600080fd5b8063a22cb465146104a7578063b88d4fde146104c7578063c6682862146104e7578063c87b56dd146104fc57600080fd5b8063715018a6116100d1578063715018a61461044c5780638da5cb5b1461046157806395d89b411461047f578063a0712d681461049457600080fd5b806355f804b3146103d25780635c975abb146103f25780636352211e1461040c57806370a082311461042c57600080fd5b8063239c70ae1161017a57806342842e0e1161014957806342842e0e14610345578063438b63001461036557806344a0d68a146103925780634f6ccce7146103b257600080fd5b8063239c70ae146102e757806323b872dd146102fd5780632f745c591461031d5780633ccfd60b1461033d57600080fd5b8063081812fc116101b6578063081812fc14610256578063095ea7b31461028e57806313faede6146102ae57806318160ddd146102d257600080fd5b806301ffc9a7146101dd57806302329a291461021257806306fdde0314610234575b600080fd5b3480156101e957600080fd5b506101fd6101f8366004611761565b610592565b60405190151581526020015b60405180910390f35b34801561021e57600080fd5b5061023261022d366004611793565b6105bd565b005b34801561024057600080fd5b506102496105d8565b60405161020991906117fe565b34801561026257600080fd5b50610276610271366004611811565b61066a565b6040516001600160a01b039091168152602001610209565b34801561029a57600080fd5b506102326102a9366004611841565b610693565b3480156102ba57600080fd5b506102c4600d5481565b604051908152602001610209565b3480156102de57600080fd5b506008546102c4565b3480156102f357600080fd5b506102c4600f5481565b34801561030957600080fd5b5061023261031836600461186b565b6106a2565b34801561032957600080fd5b506102c4610338366004611841565b610732565b610232610797565b34801561035157600080fd5b5061023261036036600461186b565b610848565b34801561037157600080fd5b506103856103803660046118a7565b610868565b60405161020991906118c2565b34801561039e57600080fd5b506102326103ad366004611811565b61090a565b3480156103be57600080fd5b506102c46103cd366004611811565b610917565b3480156103de57600080fd5b506102326103ed366004611992565b610970565b3480156103fe57600080fd5b506010546101fd9060ff1681565b34801561041857600080fd5b50610276610427366004611811565b610984565b34801561043857600080fd5b506102c46104473660046118a7565b61098f565b34801561045857600080fd5b506102326109d7565b34801561046d57600080fd5b50600a546001600160a01b0316610276565b34801561048b57600080fd5b506102496109eb565b6102326104a2366004611811565b6109fa565b3480156104b357600080fd5b506102326104c23660046119db565b610ba5565b3480156104d357600080fd5b506102326104e2366004611a0e565b610bb0565b3480156104f357600080fd5b50610249610bc7565b34801561050857600080fd5b50610249610517366004611811565b610c55565b34801561052857600080fd5b506102c4600e5481565b34801561053e57600080fd5b5061023261054d366004611992565b610cb6565b34801561055e57600080fd5b506101fd61056d366004611a8a565b610cca565b34801561057e57600080fd5b5061023261058d3660046118a7565b610cf8565b60006001600160e01b0319821663780e9d6360e01b14806105b757506105b782610d33565b92915050565b6105c5610d83565b6010805460ff1916911515919091179055565b6060600080546105e790611ab4565b80601f016020809104026020016040519081016040528092919081815260200182805461061390611ab4565b80156106605780601f1061063557610100808354040283529160200191610660565b820191906000526020600020905b81548152906001019060200180831161064357829003601f168201915b5050505050905090565b600061067582610db0565b506000828152600460205260409020546001600160a01b03166105b7565b61069e828233610de9565b5050565b6001600160a01b0382166106d157604051633250574960e11b8152600060048201526024015b60405180910390fd5b60006106de838333610df6565b9050836001600160a01b0316816001600160a01b03161461072c576040516364283d7b60e01b81526001600160a01b03808616600483015260248201849052821660448201526064016106c8565b50505050565b600061073d8361098f565b821061076e5760405163295f44f760e21b81526001600160a01b0384166004820152602481018390526044016106c8565b506001600160a01b03919091166000908152600660209081526040808320938352929052205490565b61079f610d83565b60006107b3600a546001600160a01b031690565b6001600160a01b03164760405160006040518083038185875af1925050503d80600081146107fd576040519150601f19603f3d011682016040523d82523d6000602084013e610802565b606091505b50509050806108455760405162461bcd60e51b815260206004820152600f60248201526e15da5d1a191c985dc819985a5b1959608a1b60448201526064016106c8565b50565b61086383838360405180602001604052806000815250610bb0565b505050565b606060006108758361098f565b905060008167ffffffffffffffff81111561089257610892611906565b6040519080825280602002602001820160405280156108bb578160200160208202803683370190505b50905060005b82811015610902576108d38582610732565b8282815181106108e5576108e5611aee565b6020908102919091010152806108fa81611b1a565b9150506108c1565b509392505050565b610912610d83565b600d55565b600061092260085490565b821061094b5760405163295f44f760e21b815260006004820152602481018390526044016106c8565b6008828154811061095e5761095e611aee565b90600052602060002001549050919050565b610978610d83565b600b61069e8282611b81565b60006105b782610db0565b60006001600160a01b0382166109bb576040516322718ad960e21b8152600060048201526024016106c8565b506001600160a01b031660009081526003602052604090205490565b6109df610d83565b6109e96000610ecb565b565b6060600180546105e790611ab4565b6000610a0560085490565b60105490915060ff1615610a4f5760405162461bcd60e51b8152602060048201526011602482015270135a5b9d1a5b99c81a5cc81c185d5cd959607a1b60448201526064016106c8565b60008211610a5c57600080fd5b600f54821115610abd5760405162461bcd60e51b815260206004820152602660248201527f557365722063616e206d696e742066726f6d203120746f2035204e465473206160448201526574206f6e636560d01b60648201526084016106c8565b600e54610aca8383611c41565b1115610b105760405162461bcd60e51b8152602060048201526015602482015274151bdd185b081cdd5c1c1b1e48195e18d959591959605a1b60448201526064016106c8565b600a546001600160a01b03163314610b765781600d54610b309190611c54565b341015610b765760405162461bcd60e51b8152602060048201526014602482015273125b9cdd59999a58da595b9d08185b5b5bdd5b9d60621b60448201526064016106c8565b60015b82811161086357610b9333610b8e8385611c41565b610f1d565b80610b9d81611b1a565b915050610b79565b61069e338383610f37565b610bbb8484846106a2565b61072c84848484610fd6565b600c8054610bd490611ab4565b80601f0160208091040260200160405190810160405280929190818152602001828054610c0090611ab4565b8015610c4d5780601f10610c2257610100808354040283529160200191610c4d565b820191906000526020600020905b815481529060010190602001808311610c3057829003601f168201915b505050505081565b60606000610c616110ff565b90506000815111610c815760405180602001604052806000815250610caf565b80610c8b8461110e565b600c604051602001610c9f93929190611c6b565b6040516020818303038152906040525b9392505050565b610cbe610d83565b600c61069e8282611b81565b6001600160a01b03918216600090815260056020908152604080832093909416825291909152205460ff1690565b610d00610d83565b6001600160a01b038116610d2a57604051631e4fbdf760e01b8152600060048201526024016106c8565b61084581610ecb565b60006001600160e01b031982166380ac58cd60e01b1480610d6457506001600160e01b03198216635b5e139f60e01b145b806105b757506301ffc9a760e01b6001600160e01b03198316146105b7565b600a546001600160a01b031633146109e95760405163118cdaa760e01b81523360048201526024016106c8565b6000818152600260205260408120546001600160a01b0316806105b757604051637e27328960e01b8152600481018490526024016106c8565b61086383838360016111a1565b600080610e048585856112a7565b90506001600160a01b038116610e6157610e5c84600880546000838152600960205260408120829055600182018355919091527ff3f7a9fe364faab93b216da50a3214154f22a0a2b415b23a84c8169e8b636ee30155565b610e84565b846001600160a01b0316816001600160a01b031614610e8457610e8481856113a0565b6001600160a01b038516610ea057610e9b84611431565b610ec3565b846001600160a01b0316816001600160a01b031614610ec357610ec385856114e0565b949350505050565b600a80546001600160a01b038381166001600160a01b0319831681179093556040519116919082907f8be0079c531659141344cd1fd0a4f28419497f9722a3daafe3b4186f6b6457e090600090a35050565b61069e828260405180602001604052806000815250611530565b6001600160a01b038216610f6957604051630b61174360e31b81526001600160a01b03831660048201526024016106c8565b6001600160a01b03838116600081815260056020908152604080832094871680845294825291829020805460ff191686151590811790915591519182527f17307eab39ab6107e8899845ad3d59bd9653f200f220920489ca2b5937696c31910160405180910390a3505050565b6001600160a01b0383163b1561072c57604051630a85bd0160e11b81526001600160a01b0384169063150b7a0290611018903390889087908790600401611d0b565b6020604051808303816000875af1925050508015611053575060408051601f3d908101601f1916820190925261105091810190611d48565b60015b6110bc573d808015611081576040519150601f19603f3d011682016040523d82523d6000602084013e611086565b606091505b5080516000036110b457604051633250574960e11b81526001600160a01b03851660048201526024016106c8565b805181602001fd5b6001600160e01b03198116630a85bd0160e11b146110f857604051633250574960e11b81526001600160a01b03851660048201526024016106c8565b5050505050565b6060600b80546105e790611ab4565b6060600061111b83611547565b600101905060008167ffffffffffffffff81111561113b5761113b611906565b6040519080825280601f01601f191660200182016040528015611165576020820181803683370190505b5090508181016020015b600019016f181899199a1a9b1b9c1cb0b131b232b360811b600a86061a8153600a850494508461116f57509392505050565b80806111b557506001600160a01b03821615155b156112775760006111c584610db0565b90506001600160a01b038316158015906111f15750826001600160a01b0316816001600160a01b031614155b801561120457506112028184610cca565b155b1561122d5760405163a9fbf51f60e01b81526001600160a01b03841660048201526024016106c8565b81156112755783856001600160a01b0316826001600160a01b03167f8c5be1e5ebec7d5bd14f71427d1e84f3dd0314c0f7b2291e5b200ac8c7c3b92560405160405180910390a45b505b5050600090815260046020526040902080546001600160a01b0319166001600160a01b0392909216919091179055565b6000828152600260205260408120546001600160a01b03908116908316156112d4576112d481848661161f565b6001600160a01b03811615611312576112f16000856000806111a1565b6001600160a01b038116600090815260036020526040902080546000190190555b6001600160a01b03851615611341576001600160a01b0385166000908152600360205260409020805460010190555b60008481526002602052604080822080546001600160a01b0319166001600160a01b0389811691821790925591518793918516917fddf252ad1be2c89b69c2b068fc378daa952ba7f163c4a11628f55a4df523b3ef91a4949350505050565b60006113ab8361098f565b6000838152600760205260409020549091508082146113fe576001600160a01b03841660009081526006602090815260408083208584528252808320548484528184208190558352600790915290208190555b5060009182526007602090815260408084208490556001600160a01b039094168352600681528383209183525290812055565b60085460009061144390600190611d65565b6000838152600960205260408120546008805493945090928490811061146b5761146b611aee565b90600052602060002001549050806008838154811061148c5761148c611aee565b60009182526020808320909101929092558281526009909152604080822084905585825281205560088054806114c4576114c4611d78565b6001900381819060005260206000200160009055905550505050565b600060016114ed8461098f565b6114f79190611d65565b6001600160a01b039093166000908152600660209081526040808320868452825280832085905593825260079052919091209190915550565b61153a8383611683565b6108636000848484610fd6565b60008072184f03e93ff9f4daa797ed6e38ed64bf6a1f0160401b83106115865772184f03e93ff9f4daa797ed6e38ed64bf6a1f0160401b830492506040015b6d04ee2d6d415b85acef810000000083106115b2576d04ee2d6d415b85acef8100000000830492506020015b662386f26fc1000083106115d057662386f26fc10000830492506010015b6305f5e10083106115e8576305f5e100830492506008015b61271083106115fc57612710830492506004015b6064831061160e576064830492506002015b600a83106105b75760010192915050565b61162a8383836116e8565b610863576001600160a01b03831661165857604051637e27328960e01b8152600481018290526024016106c8565b60405163177e802f60e01b81526001600160a01b0383166004820152602481018290526044016106c8565b6001600160a01b0382166116ad57604051633250574960e11b8152600060048201526024016106c8565b60006116bb83836000610df6565b90506001600160a01b03811615610863576040516339e3563760e11b8152600060048201526024016106c8565b60006001600160a01b03831615801590610ec35750826001600160a01b0316846001600160a01b0316148061172257506117228484610cca565b80610ec35750506000908152600460205260409020546001600160a01b03908116911614919050565b6001600160e01b03198116811461084557600080fd5b60006020828403121561177357600080fd5b8135610caf8161174b565b8035801515811461178e57600080fd5b919050565b6000602082840312156117a557600080fd5b610caf8261177e565b60005b838110156117c95781810151838201526020016117b1565b50506000910152565b600081518084526117ea8160208601602086016117ae565b601f01601f19169290920160200192915050565b602081526000610caf60208301846117d2565b60006020828403121561182357600080fd5b5035919050565b80356001600160a01b038116811461178e57600080fd5b6000806040838503121561185457600080fd5b61185d8361182a565b946020939093013593505050565b60008060006060848603121561188057600080fd5b6118898461182a565b92506118976020850161182a565b9150604084013590509250925092565b6000602082840312156118b957600080fd5b610caf8261182a565b6020808252825182820181905260009190848201906040850190845b818110156118fa578351835292840192918401916001016118de565b50909695505050505050565b634e487b7160e01b600052604160045260246000fd5b600067ffffffffffffffff8084111561193757611937611906565b604051601f8501601f19908116603f0116810190828211818310171561195f5761195f611906565b8160405280935085815286868601111561197857600080fd5b858560208301376000602087830101525050509392505050565b6000602082840312156119a457600080fd5b813567ffffffffffffffff8111156119bb57600080fd5b8201601f810184136119cc57600080fd5b610ec38482356020840161191c565b600080604083850312156119ee57600080fd5b6119f78361182a565b9150611a056020840161177e565b90509250929050565b60008060008060808587031215611a2457600080fd5b611a2d8561182a565b9350611a3b6020860161182a565b925060408501359150606085013567ffffffffffffffff811115611a5e57600080fd5b8501601f81018713611a6f57600080fd5b611a7e8782356020840161191c565b91505092959194509250565b60008060408385031215611a9d57600080fd5b611aa68361182a565b9150611a056020840161182a565b600181811c90821680611ac857607f821691505b602082108103611ae857634e487b7160e01b600052602260045260246000fd5b50919050565b634e487b7160e01b600052603260045260246000fd5b634e487b7160e01b600052601160045260246000fd5b600060018201611b2c57611b2c611b04565b5060010190565b601f82111561086357600081815260208120601f850160051c81016020861015611b5a5750805b601f850160051c820191505b81811015611b7957828155600101611b66565b505050505050565b815167ffffffffffffffff811115611b9b57611b9b611906565b611baf81611ba98454611ab4565b84611b33565b602080601f831160018114611be45760008415611bcc5750858301515b600019600386901b1c1916600185901b178555611b79565b600085815260208120601f198616915b82811015611c1357888601518255948401946001909101908401611bf4565b5085821015611c315787850151600019600388901b60f8161c191681555b5050505050600190811b01905550565b808201808211156105b7576105b7611b04565b80820281158282048414176105b7576105b7611b04565b600084516020611c7e8285838a016117ae565b855191840191611c918184848a016117ae565b8554920191600090611ca281611ab4565b60018281168015611cba5760018114611ccf57611cfb565b60ff1984168752821515830287019450611cfb565b896000528560002060005b84811015611cf357815489820152908301908701611cda565b505082870194505b50929a9950505050505050505050565b6001600160a01b0385811682528416602082015260408101839052608060608201819052600090611d3e908301846117d2565b9695505050505050565b600060208284031215611d5a57600080fd5b8151610caf8161174b565b818103818111156105b7576105b7611b04565b634e487b7160e01b600052603160045260246000fdfea264697066735822122057eb96e5c8d93e1cc683248b8095dbdc3e760437cc99bcbd7b51f225c663cb2164736f6c63430008140033",
  "linkReferences": {},
  "deployedLinkReferences": {}
}